:020000040800F2
:1000000000800120A9A20008FD1B0008FF1B0008BA
:10001000011C0008031C0008051C0008000000006B
:10002000000000000000000000000000071C0008A5
:10003000091C0008000000000B1C00080D1C000833
:10004000F9A20008F9A20008F9A20008F9A2000824
:10005000F9A20008F9A20008F9A20008F9A2000814
:10006000F9A20008F9A20008F9A20008111C000872
:10007000F9A20008F9A20008F9A20008F9A20008F4
:10008000F9A20008F9A20008F9A20008F9A20008E4
:10009000F9A20008F9A20008F9A20008F9A20008D4
:1000A000F9A20008F9A20008F9A20008F9A20008C4
:1000B000F9A20008F9A20008F9A200081D1C000816
:1000C000291C0008F9A20008F9A20008F9A20008FA
:1000D000F9A20008F9A20008F9A20008F9A2000894
:1000E000351C0008F9A20008F9A20008F9A20008CE
:1000F000F9A20008F9A20008F9A20008F9A2000874
:1001000000000000F9A2000800000000F9A20008A9
:100110003D1C0008F9A20008F9A20008F9A2000895
:10012000F9A20008F9A20008F9A20008F9A2000843
:10013000F9A200080000000000000000F9A2000879
:10014000F9A20008F9A20008000000000000000069
:10015000000000000000000000000000000000009F
:10016000000000000000000000000000F9A20008EC
:10017000F9A20008F9A20008F9A20008F9A20008F3
:10018000F9A20008F9A20008000000000000000029
:100190000000000000000000F9A20008F9A2000819
:1001A0000000000000000000F9A20008491C00083F
:1001B000F9A20008F9A20008F9A20008F9A20008B3
:1001C000F9A20008F9A20008F9A20008F9A20008A3
:0801D000F9A20008F9A20008E1
:1001E00010B5054C237833B9044B13B10448AFF371
:1001F00000800123237010BD1802002000000000C1
:100200001CE9000808B5034B1BB103490348AFF3D1
:10021000008008BD000000001C0200201CE900084E
:1002200081F0004102E000BF83F0004330B54FEAA7
:1002300041044FEA430594EA050F08BF90EA020F14
:100240001FBF54EA000C55EA020C7FEA645C7FEAA7
:10025000655C00F0E2804FEA5454D4EB5555B8BFCA
:100260006D420CDD2C4480EA020281EA030382EA3B
:10027000000083EA010180EA020281EA0303362DCD
:1002800088BF30BD11F0004F4FEA01314FF4801CA0
:100290004CEA113102D0404261EB410113F0004FB2
:1002A0004FEA03334CEA133302D0524263EB430369
:1002B00094EA050F00F0A780A4F10104D5F1200E07
:1002C0000DDB02FA0EFC22FA05F2801841F1000162
:1002D00003FA0EF2801843FA05F359410EE0A5F136
:1002E00020050EF1200E012A03FA0EFC28BF4CF067
:1002F000020C43FA05F3C01851EBE37101F000451D
:1003000007D54FF0000EDCF1000C7EEB00006EEB29
:100310000101B1F5801F1BD3B1F5001F0CD34908B3
:100320005FEA30004FEA3C0C04F101044FEA44520A
:1003300012F5800F80F09A80BCF1004F08BF5FEA91
:10034000500C50F1000041EB045141EA050130BD71
:100350005FEA4C0C404141EB0101013C28BFB1F583
:10036000801FE9D291F0000F04BF01460020B1FACE
:1003700081F308BF2033A3F10B03B3F120020CDAA1
:100380000C3208DD02F1140CC2F10C0201FA0CF07F
:1003900021FA02F10CE002F11402D8BFC2F1200CE4
:1003A00001FA02F120FA0CFCDCBF41EA0C0190409A
:1003B000E41AA2BF01EB0451294330BD6FEA0404E3
:1003C0001F3C1CDA0C340EDC04F11404C4F12002CE
:1003D00020FA04F001FA02F340EA030021FA04F3E0
:1003E00045EA030130BDC4F10C04C4F1200220FA37
:1003F00002F001FA04F340EA0300294630BD21FA75
:1004000004F0294630BD94F0000F83F4801306BF3A
:1004100081F480110134013D4EE77FEA645C18BF2E
:100420007FEA655C29D094EA050F08BF90EA020FC5
:1004300005D054EA000C04BF1946104630BD91EABD
:10044000030F1EBF0021002030BD5FEA545C05D1C0
:100450004000494128BF41F0004130BD14F58004FF
:100460003CBF01F5801130BD01F0004545F0FE4173
:1004700041F470014FF0000030BD7FEA645C1ABFA8
:10048000194610467FEA655C1CBF0B46024650EADF
:10049000013406BF52EA033591EA030F41F400210B
:1004A00030BD00BF90F0000F04BF0021704730B591
:1004B0004FF4806404F132044FF000054FF0000166
:1004C00050E700BF90F0000F04BF0021704730B527
:1004D0004FF4806404F1320410F0004548BF4042FC
:1004E0004FF000013EE700BF42004FEAE2014FEA51
:1004F00031014FEA02701FBF12F07F4393F07F4F2C
:1005000081F06051704732F07F4208BF704793F02E
:100510007F4F04BF41F40021704730B54FF4607441
:1005200001F0004521F000411CE700BF50EA010244
:1005300008BF704730B54FF000050AE050EA0102ED
:1005400008BF704730B511F0004502D5404261EB5D
:1005500041014FF4806404F132045FEA915C3FF49E
:10056000D8AE4FF003025FEADC0C18BF03325FEA3B
:10057000DC0C18BF033202EBDC02C2F1200300FAEC
:1005800003FC20FA02F001FA03FE40EA0E0021FA11
:1005900002F11444BDE600BF70B54FF0FF0C4CF4FF
:1005A000E06C1CEA11541DBF1CEA135594EA0C0FB1
:1005B00095EA0C0F00F0DEF82C4481EA030621EAEC
:1005C0004C5123EA4C5350EA013518BF52EA033527
:1005D00041F4801143F4801338D0A0FB02CE4FF0D9
:1005E0000005E1FB02E506F00042E0FB03E54FF009
:1005F0000006E1FB03569CF0000F18BF4EF0010E01
:10060000A4F1FF04B6F5007F64F5407404D25FEAFC
:100610004E0E6D4146EB060642EAC62141EA5551AF
:100620004FEAC52040EA5E504FEACE2EB4F1FD0CF1
:1006300088BFBCF5E06F1ED8BEF1004F08BF5FEA6F
:10064000500E50F1000041EB045170BD06F0004621
:1006500046EA010140EA020081EA0301B4EB5C04CE
:10066000C2BFD4EB0C0541EA045170BD41F48011C6
:100670004FF0000E013C00F3AB8014F1360FDEBFEB
:10068000002001F0004170BDC4F10004203C35DAC7
:100690000C341BDC04F11404C4F1200500FA05F34A
:1006A00020FA04F001FA05F240EA020001F00042EB
:1006B00021F0004110EBD37021FA04F642EB060161
:1006C0005EEA430E08BF20EAD37070BDC4F10C048B
:1006D000C4F1200500FA04F320FA05F001FA04F24F
:1006E00040EA020001F0004110EBD37041F100013B
:1006F0005EEA430E08BF20EAD37070BDC4F1200546
:1007000000FA05F24EEA020E20FA04F301FA05F2AD
:1007100043EA020321FA04F001F0004121FA04F255
:1007200020EA020000EBD3705EEA430E08BF20EA25
:10073000D37070BD94F0000F0FD101F0004640005F
:1007400041EB010111F4801F08BF013CF7D041EAE1
:10075000060195F0000F18BF704703F000465200E5
:1007600043EB030313F4801F08BF013DF7D043EAB6
:100770000603704794EA0C0F0CEA135518BF95EA6C
:100780000C0F0CD050EA410618BF52EA4306D1D1F3
:1007900081EA030101F000414FF0000070BD50EA12
:1007A000410606BF1046194652EA430619D094EA9C
:1007B0000C0F02D150EA013613D195EA0C0F05D186
:1007C00052EA03361CBF104619460AD181EA0301DA
:1007D00001F0004141F0FE4141F470014FF0000092
:1007E00070BD41F0FE4141F4780170BD70B54FF02D
:1007F000FF0C4CF4E06C1CEA11541DBF1CEA1355AD
:1008000094EA0C0F95EA0C0F00F0A7F8A4EB05048E
:1008100081EA030E52EA03354FEA013100F0888085
:100820004FEA03334FF0805545EA131343EA12634E
:100830004FEA022245EA111545EA10654FEA002603
:100840000EF000419D4208BF964244F1FD0404F5BC
:10085000407402D25B084FEA3202B61A65EB030518
:100860005B084FEA32024FF480104FF4002CB6EBD5
:10087000020E75EB030E22BFB61A754640EA0C0055
:100880005B084FEA3202B6EB020E75EB030E22BF95
:10089000B61A754640EA5C005B084FEA3202B6EBD6
:1008A000020E75EB030E22BFB61A754640EA9C0095
:1008B0005B084FEA3202B6EB020E75EB030E22BF65
:1008C000B61A754640EADC0055EA060E18D04FEA23
:1008D000051545EA16754FEA06164FEAC30343EAC3
:1008E00052734FEAC2025FEA1C1CC0D111F4801F90
:1008F0000BD141EA00014FF000004FF0004CB6E789
:1009000011F4801F04BF01430020B4F1FD0C88BF27
:10091000BCF5E06F3FF6AFAEB5EB030C04BFB6EB32
:10092000020C5FEA500C50F1000041EB045170BD25
:100930000EF0004E4EEA113114EB5C04C2BFD4EB52
:100940000C0541EA045170BD41F480114FF0000ED6
:10095000013C90E645EA060E8DE60CEA135594EA52
:100960000C0F08BF95EA0C0F3FF43BAF94EA0C0F55
:100970000AD150EA01347FF434AF95EA0C0F7FF4CA
:1009800025AF104619462CE795EA0C0F06D152EA1E
:1009900003353FF4FDAE1046194622E750EA410602
:1009A00018BF52EA43067FF4C5AE50EA41047FF413
:1009B0000DAF52EA43057FF4EBAE12E74FEA410276
:1009C000B2F1E04324BFB3F5001CDCF1FE5C0DD9AD
:1009D00001F0004C4FEAC0024CEA5070B2F1004FF7
:1009E00040EB830008BF20F00100704711F0804FFA
:1009F00021D113F13872BCBF01F00040704741F4BF
:100A000080114FEA5252C2F11802C2F1200C10FAC2
:100A10000CF320FA02F018BF40F001004FEAC123A6
:100A20004FEAD32303FA0CFC40EA0C0023FA02F34A
:100A30004FEA4303CCE77FEA625307D150EA013320
:100A40001EBF4FF0FE4040F44000704701F00040F0
:100A500040F0FE4040F40000704700BF80F00040CE
:100A600002E000BF81F0004142001FBF5FEA410386
:100A700092EA030F7FEA226C7FEA236C6AD04FEA86
:100A80001262D2EB1363C1BFD218414048404140CB
:100A9000B8BF5B42192B88BF704710F0004F40F47D
:100AA000000020F07F4018BF404211F0004F41F499
:100AB000000121F07F4118BF494292EA030F3FD065
:100AC000A2F1010241FA03FC10EB0C00C3F1200378
:100AD00001FA03F100F0004302D5494260EB400007
:100AE000B0F5000F13D3B0F1807F06D340084FEA72
:100AF000310102F10102FE2A51D2B1F1004F40EB67
:100B0000C25008BF20F0010040EA030070474900CE
:100B100040EB0000013A28BFB0F5000FEDD2B0FA6B
:100B200080FCACF1080CB2EB0C0200FA0CF0AABF8E
:100B300000EBC25052421843BCBFD040184370472C
:100B400092F0000F81F4000106BF80F40000013232
:100B5000013BB5E74FEA41037FEA226C18BF7FEA09
:100B6000236C21D092EA030F04D092F0000F08BF4B
:100B70000846704790EA010F1CBF0020704712F032
:100B80007F4F04D1400028BF40F00040704712F171
:100B900000723CBF00F50000704700F0004343F0D6
:100BA000FE4040F4000070477FEA226216BF08460C
:100BB0007FEA23630146420206BF5FEA412390EACF
:100BC000010F40F4800070474FF0000304E000BFC5
:100BD00010F0004348BF40425FEA000C08BF704776
:100BE00043F0964301464FF000001CE050EA01023A
:100BF00008BF70474FF000030AE000BF50EA01024F
:100C000008BF704711F0004302D5404261EB41013B
:100C10005FEA010C02BF84460146002043F0B64360
:100C200008BFA3F18053A3F50003BCFA8CF2083A85
:100C3000A3EBC25310DB01FA02FC634400FA02FC8E
:100C4000C2F12002BCF1004F20FA02F243EB020095
:100C500008BF20F00100704702F1200201FA02FCF7
:100C6000C2F1200250EA4C0021FA02F243EB0200EA
:100C700008BF20EADC70704753B94AB9002908BFA1
:100C800000281CBF4FF0FF314FF0FF3000F088B953
:100C9000ADF1080C6DE904CE00F006F8DDF804E0D3
:100CA000DDE9022304B070472DE9F047089D0F46A7
:100CB00004468C46002B48D18A42164661D9B2FAC6
:100CC00082F34BB1C3F1200201FA03FC20FA02F2D5
:100CD0009E4042EA0C0C9C404FEA164EB7B2BCFB59
:100CE000FEF1220C0EFB11CC42EA0C4201FB07F094
:100CF000904209D9B21801F1FF3C80F0EE80904299
:100D000040F2EB8002393244121AA4B2B2FBFEF078
:100D10000EFB102244EA024400FB07F7A74209D960
:100D2000341900F1FF3280F0DA80A74240F2D78018
:100D30003444023840EA0140E41B00211DB1DC408C
:100D40000023C5E90043BDE8F0878B4206D90DB109
:100D5000C5E9000100210846BDE8F087B3FA83F138
:100D6000002948D1BB4202D3824200F20781841A93
:100D700067EB030201209446002DE4D0C5E9004C46
:100D8000E1E7002A00F09280B2FA82F3002B40F0F3
:100D9000A8808A1A4FEA164E1FFA86FC0121200C01
:100DA000B2FBFEF70EFB172240EA02420CFB07F0F3
:100DB000904207D9B21807F1FF3802D2904200F2F0
:100DC000E2804746121AA4B2B2FBFEF00EFB1022DC
:100DD00044EA02440CFB00FCA44507D9341900F195
:100DE000FF3202D2A44500F2CB801046A4EB0C04E3
:100DF00040EA0740A2E7C1F120068B4022FA06FC38
:100E00004CEA030C07FA01F420FA06F3F7404FEA24
:100E10001C49234300FA01F81FFA8CFEB7FBF9F0D6
:100E20001C0C09FB107744EA074400FB0EF7A742AD
:100E300002FA01F20AD91CEB040400F1FF3A80F037
:100E40009B80A74240F2988002386444E41B9FB222
:100E5000B4FBF9F309FB134447EA044403FB0EFE19
:100E6000A64509D91CEB040403F1FF3780F082800A
:100E7000A6457FD9023B644443EA0040A4EB0E043C
:100E8000A0FB02E7BC427346B94663D360D05DB1B4
:100E9000B8EB030264EB090404FA06F622FA01F344
:100EA0001E43CC40C5E9006400214CE762084808B5
:100EB00042EAC1710B0C43EA00438AB242EA0342A0
:100EC000B3FBF6F1E407B4463746B6461F23B0FB42
:100ED000F6F0D21B41EA004161E7614614E7104693
:100EE00028E7C3F1200120FA01F29E4027FA01F120
:100EF0009F403A434FEA164E1FFA86FCB1FBFEF7BD
:100F00000EFB1710110C41EA004107FB0CF8884555
:100F100004FA03F43AD9711807F1FF3001D2884579
:100F20001FD8A1EB0801B1FBFEF808FB0CF70EFB84
:100F3000181192B242EA0142BA422FD2B21808F115
:100F4000FF31C6D2BA42C4D2A8F102013244C0E78E
:100F5000F0459CD2BEEB020367EB0C070138B946A3
:100F600095E7A6EB08084144B81EB1FBFEF808FB64
:100F70000CF7DCE73B467FE7504667E70846FBE6B1
:100F80003444023832E7023F32441BE7A1EB080148
:100F90003846B1FBFEF808FB0CF7C8E7414698E776
:100FA000704700BF10F8012B11F8013B012A28BF40
:100FB0009A42F7D0D01A70470000000000000000ED
:100FC00001F0FF01102A2BDB10F0070F08D010F8FA
:100FD000013B013A8B422DD010F0070F42B3F6D1FE
:100FE000F0B441EA012141EA014122F007047FF017
:100FF00000070023F0E80256083C85EA010586EA6E
:10100000010685FA47F5A3FA87F586FA47F6A5FAA9
:1010100087F68EB9EED1F0BC01F0FF0102F00702B5
:1010200032B110F8013B013A83EA010313B1F8D160
:101030000020704701387047002D06BF3546033841
:10104000073815F0010F07D1013015F4807F02BF7A
:10105000013015F4C03F0130F0BC0138704700BFCB
:10106000034613F8012B002AFBD1181A01387047E8
:101070004FF0FF3C06E000BF4FF0010C02E000BF64
:101080004FF0010C4DF804CD4FEA410C7FEA6C5C47
:101090004FEA430C18BF7FEA6C5C1BD001B050EAEA
:1010A000410C0CBF52EA430C91EA030F02BF90EAD5
:1010B000020F0020704710F1000F91EA030F58BF94
:1010C000994208BF90422CBFD8176FEAE37040F0F6
:1010D000010070474FEA410C7FEA6C5C02D150EA94
:1010E000013C07D14FEA430C7FEA6C5CD6D152EA4F
:1010F000033CD3D05DF8040B704700BF8446104614
:1011000062468C461946634600E000BF01B5FFF712
:10111000B7FF002848BF10F1000F01BD4DF808EDE2
:10112000FFF7F4FF0CBF012000205DF808FB00BFB3
:101130004DF808EDFFF7EAFF34BF012000205DF80D
:1011400008FB00BF4DF808EDFFF7E0FF94BF01205A
:1011500000205DF808FB00BF4DF808EDFFF7CEFF5B
:1011600094BF012000205DF808FB00BF4DF808ED9A
:10117000FFF7C4FF34BF012000205DF808FB00BF6B
:101180004FEA410C7FEA6C5C02D150EA013C0AD183
:101190004FEA430C7FEA6C5C02D152EA033C02D175
:1011A0004FF0000070474FF0010070474FEA4102D6
:1011B00012F5001215D211D56FF47873B3EB6252A9
:1011C00012D94FEAC12343F0004343EA505311F0D0
:1011D000004F23FA02F018BF404270474FF0000062
:1011E000704750EA013005D111F0004008BF6FF0A0
:1011F000004070474FF00000704700BF4A0011D216
:1012000012F5001211D20DD56FF47873B3EB625260
:101210000ED44FEAC12343F0004343EA505323FA6C
:1012200002F070474FF00000704750EA013002D1E1
:101230004FF0FF3070474FF00000704738B5002284
:10124000002304460D46FFF773FF28B920462946C0
:10125000BDE8384000F00AB8204605F1004100F032
:1012600005F8404261EB410138BD00BFD0B50C4BE1
:10127000002206460F46FFF78FF9FFF7BFFF04462F
:10128000FFF710F9074B0022FFF786F902460B46DD
:1012900030463946FEF7C8FFFFF7B0FF2146D0BD04
:1012A0000000F03D0000F04108B572B60B48002286
:1012B000012105F0E3FB0A480022202105F0DEFBB6
:1012C00006480022022105F0D9FB00224FF480617C
:1012D0004FF0904005F0D2FBFEE700BF000400484D
:1012E0000008004810B594B03822002106A80AF082
:1012F000F1FC1422002101A80AF0ECFC002005F00A
:101300007BFD40224FF480710223CDE909120424B1
:10131000552206A8CDE90D33CDE90F42CDE91133B1
:101320000693139304F010FE08B1FFF7BDFFCDE95B
:1013300003000F2203230590214601A8CDE90123D4
:1013400005F044F80028F0D114B010BD08B504F041
:10135000D9FDFFF7C7FF00F019F800F0B7F800F06B
:1013600091FB00F09BFA00F0A3FA00F0ABFA00F05A
:1013700005FC00F0F3F800F0FBF800F0AFF900F026
:10138000B7F904F063F904F09DF9FCE730B51422D5
:101390008BB00DEB020000210AF09CFC484B494841
:1013A000DA6C42F00102DA64DA6C02F001020192B6
:1013B000019ADA6C42F00202DA64DA6C02F002029C
:1013C0000292029ADA6C42F00402DA64DA6C02F0F9
:1013D00004020392039ADA6C42F02002DA64DB6CB6
:1013E00003F02003049300221F21049B05F046FB19
:1013F00034480022202105F041FB3348002203211C
:1014000005F03CFB00224FF480614FF0904005F066
:1014100035FB002220214FF0904005F02FFB0024E7
:1014200001253F2305A92748CDE90535CDE9074426
:1014300005F050FA032305A92348059305F04AFA5D
:101440004FF4806305A94FF09040059305F042FAF0
:10145000202305A94FF09040059305F03BFA4FF487
:101460003C4305A918480795CDE9053405F032FA43
:101470004FF4865305A91348059305F02BFA48F25B
:10148000100305A94FF09040CDE90534079505F00C
:1014900021FA4FF400524FF48813CDE9052305A932
:1014A00002230848079305F015FA22460521282053
:1014B00005F014FD282005F043FD0BB030BD00BF42
:1014C0000010024000080048000400480F4B07B518
:1014D0009A6C42F004029A649A6C02F00402009240
:1014E000009A9A6C42F001029A649B6C03F001032B
:1014F0000193002202210B20019B05F0EFFC0B2041
:1015000003B05DF804EB05F01BBD00BF0010024006
:10151000114A002310B5C0E901230122C0E90323C9
:10152000C0E90533C0E90733044606F0C6FC08B13C
:10153000FFF7BAFE0021204607F05DFC08B1FFF777
:10154000B3FE0021204607F07CFC18B1BDE8104036
:10155000FFF7AABE10BD00BF862BF000024A034B66
:1015600013601046FFF7D4BF8802002000540040EB
:10157000024A034B13601046FFF7CABF3402002033
:101580000078004010B514229EB0044600210DEBF7
:1015900002000AF09FFB502200210AA80AF09AFBE1
:1015A00001231220CDE90603314A2368934235D145
:1015B00040230AA80A9305F021F808B1FFF774FE4A
:1015C0002C4B2D489A6D42F400129A659A6D02F4E4
:1015D00000120192019ADA6C42F00202DA64DB6CCA
:1015E00003F002030293029B4FF44073059305A995
:1015F0000423099305F06EF9002207211F2005F04E
:101600006DFC1F2005F09CFC20200022072105F026
:1016100065FC202005F094FC1EB010BD174A9342D3
:10162000FAD14FF480730AA80A9304F0E7FF08B1D7
:10163000FFF73AFE0F4B12489A6D42F080429A65CE
:101640009A6D02F080420392039ADA6C42F004022F
:10165000DA64DB6C03F004030493049B4FF44073DF
:10166000059305A90823099305F034F9D4E700BFD1
:101670000054004000100240000400480078004080
:101680000008004800234FF4E13210B5C0E90123FF
:101690000C22C0E90333C0E90523C0E908338362A3
:1016A000044608F02EFC08B1FFF7FEFD002120469D
:1016B00008F094FD08B1FFF7F7FD0021204608F07F
:1016C000ADFD08B1FFF7F0FD204608F06CFD18B144
:1016D000BDE81040FFF7E8BD10BD0000024A034B13
:1016E00013601046FFF7CEBFD003002000800040FB
:1016F000024A034B13601046FFF7C4BF3C030020AF
:10170000004C004070B514229EB0054600210DEB40
:1017100002000AF0DFFA502200210AA80AF0DAFAE1
:101720002B68414A934232D120230AA80A9304F03D
:1017300065FF08B1FFF7B8FD3C4BDA6D42F00102DE
:10174000DA65DA6D02F001020192019ADA6C42F078
:101750000102DA64DB6C03F001030293029B0222B4
:101760000C23CDE905320024012205A94FF0904059
:10177000CDE90724099305F0ADF85B202246062148
:1017800005F0ACFB5B2005F0DBFB1EB070BD284A0A
:101790009342FAD108230AA80A9304F02FFF08B154
:1017A000FFF782FD214B23489A6D234C42F400221F
:1017B0009A659A6D02F400220392039ADA6C42F061
:1017C0000402DA64DB6C03F004030493049B4FF41B
:1017D000406202230026CDE905230123CDE9073627
:1017E00005A90523099305F075F81449A6611E2380
:1017F000C4E9001380232020C4E904364FF40053C9
:10180000C4E907032046C4E9026605F087F908B178
:10181000FFF74AFD3420C5F8804000220221A5626E
:1018200005F05CFB3420AEE7008000400010024071
:10183000004C004000080048DC0200200800024084
:10184000F0B58DB004460F46164600211C2204A8B0
:101850000AF040FA0025032301220393C4E900752E
:101860000423C4E902562561A56103A92046CDE9F8
:10187000005502950592079309920B9305F032FEED
:1018800008B1FFF711FD694620460095029506F064
:10189000DDF808B1FFF708FD0DB0F0BD03484FF0CB
:1018A000FF324FF08041FFF7CBBF00BF480500205B
:1018B000024903484FF6FF72FFF7C2BF0004004021
:1018C000FC040020024903484FF6FF72FFF7B8BF3F
:1018D00000080040B004002010B504468CB014226B
:1018E000002107A80AF0F6F9236802220121B3F1CA
:1018F000804FCDE9082119D103F504339A6D0A43CD
:101900009A659A6D0A400192019ADA6C0A43DA6488
:10191000DB6C0B910B400293029B0323079307A9F7
:101920004FF0904004F0D6FF0CB010BD1A498B4226
:1019300016D11A4B996D41F002019965996D01F02C
:10194000020103910399D96C41F00101D964DB6C68
:101950000B9203F001030493049BC0230793DEE77B
:101960000F498B42E0D10D4B0E48996D41F00401B7
:101970009965996D01F0040105910599D96C41F0C3
:101980000201D964DB6C0B9203F002030693069B01
:10199000C023079307A9C5E70004004000100240D8
:1019A00000080040000400480268084B9A4282B0D8
:1019B0000AD103F564431A6E42F400621A661B6E84
:1019C00003F400630193019B02B07047002C0140B7
:1019D0000268084B9A4282B00AD103F550431A6E4E
:1019E00042F480321A661B6E03F480330193019B2C
:1019F00002B070470040014010B5044688B0142280
:101A0000002103A80AF066F923681A4A934217D105
:101A1000194BDA6C42F00102DA64DB6C03F001036B
:101A200001934FF44071019B0223CDE90313062378
:101A3000079303A94FF0904004F04CFF08B010BD8D
:101A40000E4A9342FAD10C4B0D48DA6C42F0020276
:101A5000DA64DB6C03F002030293029B4FF48042D2
:101A60000223CDE90323CDE905330123079303A91D
:101A7000E2E700BF002C014000100240004001409E
:101A80000004004810B510229CB0002400210DEB8A
:101A900002000AF01FF91C22214608A8CDE90144E2
:101AA00003940AF017F9342221460FA80AF012F91C
:101AB000304A314B9460C2E90034104642F233138D
:101AC000C2E90334C2E9054405F0ACFC08B1FFF7F4
:101AD000EBFB4FF480532748049304A905F022FE42
:101AE00008B1FFF7E1FB234805F0CCFC08B1FFF794
:101AF000DBFB00241F48039401A9CDE9014405F054
:101B0000A5FF08B1FFF7D0FB60231A480E9400220E
:101B100008A9CDE90834CDE90A44CDE90C4405F023
:101B20007BFD08B1FFF7C0FB1248042208A905F0AD
:101B300073FD08B1FFF7B8FB00234FF40052CDE965
:101B400014230C4813934FF000720FA9CDE90F3303
:101B5000CDE91133CDE91633CDE91823CDE91A3398
:101B600005F0C0FF08B1FFF79FFB0248FFF744FFF5
:101B70001CB010BD94050020002C014010B50024BD
:101B80008AB01C22214603A8CDE9004402940AF041
:101B9000A1F8184A184B1360A923C2E90134104672
:101BA0004CF24F33C2E90334C2E9054405F06AFC44
:101BB00008B1FFF779FB0F4800946946029405F0DD
:101BC00045FF08B1FFF770FB002260230948099226
:101BD00003A9CDE90332CDE90522CDE9072205F0BD
:101BE0001BFD08B1FFF760FB0248FFF705FF0AB0D5
:101BF00010BD00BF6404002000400140FEE7FEE786
:101C0000FEE7FEE7FEE770477047704704F08AB9C9
:101C1000014805F0A2B800BFDC020020014806F030
:101C200033BB00BF88020020014806F0C8BE00BFD9
:101C3000880200204FF4005004F026BF014807F04E
:101C4000E7BA00BF3C030020014807F0E1BA00BF3B
:101C5000D00300200B4B1A6E42F0010282B01A66CC
:101C60001A6E02F001020092009A9A6D42F08052C0
:101C70009A659B6D03F080530193019B02B005F0C0
:101C800013B900BF00100240034AD2F8883043F471
:101C90007003C2F88830704700ED00E038B50446A4
:101CA00017481C2303FB040300211A69154B082A5B
:101CB0001B6821D005D852B1042A1BD00022DA6457
:101CC00006E00C2A1AD0102AF8D1996400E05A6371
:101CD0001C236343C5180022C058A98804F0CEFE17
:101CE0000022A989A86804F0C9FE074B002223F846
:101CF000142038BD9963EBE7D963E9E71964E7E796
:101D000050E9000894050020E005002010B50446C5
:101D100020B9FFF7C3FF0120FFF7C0FF22460348A9
:101D2000BDE81040012104F0A9BE00BF0004004836
:101D3000012838B5044628D817481C2303FB0403A0
:101D400000211A69154B082A1B6821D005D852B109
:101D5000042A1BD00022DA6406E00C2A1AD0102ACA
:101D6000F8D1996400E05A631C236343C51801222B
:101D7000C058A98804F082FE0122A989A86804F04D
:101D80007DFE074B002223F8142038BD9963EBE752
:101D9000D963E9E71964E7E750E9000894050020F2
:101DA000E005002001282DE9F041054661D8354EB7
:101DB0001C2303FB0063B3F9180093F9143013FBE1
:101DC00001F383420BDC42429342B4BF13B21BB215
:101DD000002B06D12846BDE8F041FFF7A9BF034616
:101DE000F6E74FF01C0202FB0561B8BF5C42B1F997
:101DF0001610B4BF24B21C46A14203DD8842A8BF1E
:101E0000084604466A43B718002BB058B9881E4BE1
:101E1000B7F80C801EDD012223F8154004F02EFED9
:101E200000224146B86804F029FE1C2303FB056626
:101E3000164932690B68C968082A01FB04444FF44B
:101E40007A71B4FBF1F418D00CD88AB1042A12D0FC
:101E5000DC640EE0624223F81520002204F00EFE3E
:101E60000122DEE70C2A0AD0102AF1D19C6400E09E
:101E70005C63BDE8F0819C63FBE7DC63F9E71C640D
:101E8000F7E700BF50E90008E005002094050020B6
:101E900008B50020FFF702FF0120FFF7FFFE094809
:101EA0000022012104F0EAFD06480022022104F08C
:101EB000E5FDBDE8084000224FF480614FF09040FE
:101EC00004F0DCBD0004004808B50948002105F015
:101ED0005BFD08B1FFF7E8F90548042105F054FD62
:101EE00008B1FFF7E1F9BDE80840FFF7D1BF00BF37
:101EF0009405002010B50A4C237843B1094800210D
:101F000005F0A2FD08B1FFF7CFF900232370054BC0
:101F10001A68002353635362034A936010BD00BFE5
:101F2000E405002064040020F0050020124B134853
:101F300010B500241C70C3E90144114B1C70114BF7
:101F40001C60114B224620211C7004F097FD224694
:101F50000A48102104F092FD22460C48022104F0A8
:101F60008DFD22464FF480614FF0904004F086FDD5
:101F7000BDE81040FFF7BEBFF00500200008004894
:101F8000EC050020E8050020E405002000040048DE
:101F900038B5084D044648B96860FFF7ABFF2246E4
:101FA0000548202104F06AFD2C7038BDFFF7A2FF20
:101FB0000122F5E7F005002000080048B0F5FA6FAF
:101FC0002DE9F84304460D4611DC10F5FA6F11DBDC
:101FD00000F11303262B98BF0024304E3378746031
:101FE0000BB1002C08D1BDE8F843FFF783BF4FF4D5
:101FF000FA64F2E72A4CF0E7DFF8B490DFF8B48037
:1020000099F90030CCBF01274FF0FF37BB420FD00A
:10201000FFF770FF7B1E5A4222485A4110210135BA
:1020200004F02CFD89F80070C8F80050BDE8F88372
:10203000D8F80030ED1A002DD5DB1B4D297884EA45
:10204000E472A2EBE47211B1B368A342EED0174878
:10205000530803F5742303F51073B3FBF2F302681E
:102060005F1ED762C7605F08576331B1516A8B4208
:1020700001D800235362B460D8E75162012105F012
:1020800067F908B1FFF710F90848002105F07CFC5A
:1020900008B1FFF709F901232B70ECE7F0050020E8
:1020A00030F8FFFF00080048E40500206404002029
:1020B000EC050020E8050020024B00225A60FFF7E3
:1020C00019BF00BFF005002000487047F005002050
:1020D0002DE9F843104D114C03264FF000084FF046
:1020E0000009002728683C2105F0DAF808B1FFF75D
:1020F000DBF82B681A68013E4FF00003536205F1CC
:102100001405C4E902892360276145F8103C04F1F5
:102110001804E7D1BDE8F883040000200006002081
:10212000F0B588B3224A2349DFED236A9FED236A85
:10213000002517460B680E7C1B6891ED037A5C6ADC
:102140004B684C60E31A102E08BF1BB207EE903AA2
:10215000F8EEE77AD2E9024667EE877AFDEEE77A93
:1021600017EE903AE41846EBE376022DC2E90246F8
:10217000C2ED007A09D100233B640135032D01F142
:10218000140102F11802D5D1F0BDF8EEE77A07EE9E
:10219000100AD1ED025A67EEA67AB8EE477A67EEDA
:1021A000867A27EE257AC7EE875AC2ED045AE4E70D
:1021B00000060020040000205A584F4300007A44D3
:1021C00002289DBF024B182202FB003000207047FE
:1021D00000060020022813D814230A4A4343D118CA
:1021E000D3581A6800235362182250434B600649A3
:1021F0000A180B5000200021C2E9020100231361DC
:10220000704700BF040000200006002020B100231A
:10221000C360036100230377704758B180ED000A63
:10222000C0ED010A80ED021AC0ED051A80ED062A04
:10223000FFF7ECBF70470000B0EE407A002865D091
:10224000F5EEC00AF1EE10FA60D9037FDBB3D0EDF2
:10225000047A70EE677A87EEA06AD0ED037AD0ED4B
:10226000056AE0EE877AF4EEE67AF1EE10FA08DC21
:10227000F1EE666AF4EEE76AF1EE10FAD8BFF0EE1E
:10228000676AD0ED017AD0ED005A90ED060A66EE4D
:10229000A77AE5EE877AD0ED025AE5EE867AB4EEBB
:1022A000E70AF1EE10FA11DBB1EE406AB4EEE76A2C
:1022B000F1EE10FA04D9B5EEC07AF1EE10FA12DDA3
:1022C000C0ED036A0FE09FED136AC6E704D5B5EED3
:1022D000C07AF1EE10FAF3D4B1EE406AB4EEE76AD8
:1022E000F1EE10FAE7DCB4EEE70A0123F1EE10FAA2
:1022F00080ED047A03770BD4B1EE400AB4EEE70A1E
:10230000F1EE10FAD8BFB0EE670A70479FED010AF0
:10231000704700BF00000000F0B503681A782D2A4E
:10232000054609D101334FF0FF329FED217A214F4D
:102330000020F2EE046A0EE02B2A00D101330122C4
:10234000F3E7303C07EE904AF8EEE77A0120E7EE3B
:10235000267AB0EE677A1E4613F8014B17F804C0D0
:102360001CF0040FEDD12E2C0CD1DFED136A1C46AE
:10237000B0EE666A264614F8013B17F803C01CF05D
:10238000040F0AD140B107EE902AF8EEE77A67EE23
:10239000877AC1ED007A2E60F0BD303B07EE903AAF
:1023A000F8EEE77A0120A7EEA67A66EE866AE1E704
:1023B0000000000071F70008CDCCCC3DF0B52DED4C
:1023C000028B8D4D0A282A7885B002D00D2840F066
:1023D0000C81002A00F0F480884B00249C540022D9
:1023E00003921A78242A40F09C805A78422A40F0BE
:1023F00098809A782C2A40F09480033302A901A88F
:102400000193FFF789FF002800F0D880019B5E1C34
:102410001B7801962C2B40F0D180DFF810C22146AA
:102420004FF00A0E33781CF803707F07324606F12E
:10243000010670D4002900F0C1802C2B00F09A8096
:1024400001920026022C00F2B9809DED028ADFED98
:102450006C7AB4EEE78AF1EE10FA00F1AF80DFEDAE
:10246000697AB4EEE78AF1EE10FA00F3A7805EB164
:10247000DDED037A9FED647AF0EEE77AF4EEC77A49
:10248000F1EE10FA00F39A8003F058FD5F4BE2B2D0
:10249000186183F824209A68012C02F101029A60E5
:1024A00040F08C805A495B4C0A68002A00F0978003
:1024B000904200F09480821A5A619F69BA4288BFA4
:1024C0009A61002E40F08E80B2F5967F5AD9DFEDEA
:1024D000527A0860012183ED008AC3ED017AD86049
:1024E00083F8251083F82610DA6984ED008A0A44FF
:1024F000DA614A4A186810605868506098689060BD
:10250000DB68D360464B82F8241082F8251082F8ED
:102510002610197052E00EFB0433A3F1300401467B
:1025200080E740493548052209F0DCFB04460028D5
:1025300044D13D4B019302A901A8FFF7EDFE864669
:1025400000283BD0019B5E1C1B7801962C2B35D1BB
:10255000364821464FF00A0C3378C75C7F07324675
:1025600006F101067FF566AF0CFB0433A3F13004DE
:102570007146F1E7013203A901A80192FFF7CCFEF1
:1025800006465FE794ED007ADFED297A38EE477A68
:1025900027EE277A07EE902AF8EEE77AC7EE276A49
:1025A000DFED197AB0EEE67AB4EEE77AF1EE10FAE2
:1025B0000ADD83F824601A6A01321A6200232B7044
:1025C00005B0BDEC028BF0BDD3ED017A93ED017A3D
:1025D00076EEC76AB5EE007AE6EE877A79E7002EE6
:1025E0003FF475AFDDED037A73E73E2AE6D8531C5E
:1025F0002B70024B9854E3E7A8060020A9060020A0
:1026000000000CC300000C43008009458006002038
:102610004C06002050060020000000005806002054
:102620005406002088E90008AE06002071F7000873
:1026300000007A4408B528220021104809F04AFB1E
:10264000282200210E4809F045FB0E4A0E490F488A
:10265000002313700E4A13800E4A13700E4A137033
:10266000802207F0FBFD08B1FEF71EFE0B4B1A6837
:10267000136823F00403136008BD00BF8006002028
:102680005806002054060020EC0600203C030020E1
:10269000EA060020A806002048060020DC020020F0
:1026A00038B50E4C237883B100250D48257006F00F
:1026B00037FD0C4B0C491D800C4B09481D708022C6
:1026C00007F0CCFD10B10123237038BD084B1A6808
:1026D000136823F004031360F7E700BF48060020E7
:1026E0003C030020EA060020EC060020A80600209B
:1026F000DC020020F0B5064680B1EFF3108772B619
:10270000074D04460FCD0FC40FCD0FC495E803004D
:1027100084E8030007B962B696F82500F0BD00BF53
:102720008006002070B505460C461646FFF7E2FF0E
:1027300058B195F82400012808D1EB6843B1E41A98
:1027400003D4B4428CBF0020012070BD0020FCE700
:102750001846FAE7064BDB683BB1C01A40F6B833BF
:102760009842CCBF0020012070471846704700BF38
:1027700080060020F0B50446EFF3108E72B60E4FBF
:102780003B7803F0FF0C8BB10C4E40B135460FCDBA
:102790000FC40FCD0FC495E8030084E80300084A76
:1027A00000233B7086F8263082F82630BEF1000FF9
:1027B00000D162B66046F0BD5406002058060020E5
:1027C00080060020802870B5054610D80F4C23885D
:1027D000834205D90E4E23887F2B09D900232380FD
:1027E0000B4E9D420AD8802B04BF0023238070BD6E
:1027F0005A1CF05C2280FFF7E1FDECE7F05CFFF78C
:10280000DDFD238801339BB22380EAE7EA0600203E
:10281000EC060020014B01221A7070474806002088
:102820002DE9F04100262DED028B204D9FED208AF1
:10283000344637464FF00108A988286804F018F993
:1028400048B9D5ED027A08FA07F31E43013438EE91
:10285000278AF6B2E4B20137082F05F10C05EBD157
:10286000231E144D18BF0123052C2B7294BF002387
:1028700001236B722E70104B6C70A4B107EE904A5E
:10288000F8EE677AB0EE0C7A67EE877A88EE277AF0
:1028900085ED017A83ED007A03F050FBBDEC028BED
:1028A000E860BDE8F0811B686B60F5E734F500086F
:1028B00000000000700700206C07002000487047EF
:1028C00070070020F8B5134C4FF09043236010229E
:1028D000A3614FF400430546A280A383022600278C
:1028E000A188206804F0C4F8B0FA80F300384FEAF9
:1028F000531318BF0120012EC4E90355A371E371DE
:1029000020726772277504F1180400D1F8BD012602
:10291000E6E700BF8007002070B51F4C0546022681
:10292000A188206804F0A4F8A279E179B0FA80F3D4
:102930005B099A421CBFA371E560994228D0E26806
:10294000AA1A1D2A24D9E37198B925616072237AE5
:10295000CBB1637ABBB92369EB1AB3F57A7F12D393
:10296000237D0BB902232375012363720BE001263B
:10297000D6E7237A2BB1637A1BB9237D0BB90123E8
:10298000237501232372012E04F11804EFD170BDC9
:102990000029F8D0DBE700BF8007002001289FBF97
:1029A000044B182202FB003300229ABF187D1A75CF
:1029B000002070478007002001289FBF034B18228A
:1029C00002FB0033987988BF002070478007002001
:1029D000024B00221A7583F82C20704780070020D4
:1029E000294BDFF8C0C02DE9F041284F284C294D74
:1029F000DFF8B4E04E1E03EBC010153116F8013FAE
:102A00000BB18E4201D1BDE8F0813A2B1BD82A2BA5
:102A100009D8214A202B08BF724613680360137936
:102A200003710630EAE7A3F12B020F2A0FD8DFE883
:102A300002F0080E28240E19191919191919191953
:102A40001926164AE9E75A2B03D8402B10D8124A08
:102A5000E3E7A3F16102D3B2192BF8D802EB8202AB
:102A60003A44DAE7303B03EB830303EB0C02D4E791
:102A7000413B03EB8303DA19CFE72A46CDE7224631
:102A8000CBE7074AC9E700BF43080020B2F50008BA
:102A900099F500089EF5000894F50008A8F50008CF
:102AA000A3F5000834F60008ADF500080D4A0E49FC
:102AB000022310B593701023D3700C4B09780024B7
:102AC0001C700B4B1470503850701C700948042354
:102AD00005F0F6FA18B9084B0120187010BD204611
:102AE000FCE700BF3F080020B9070020BD07002019
:102AF000BC07002088020020BB070020084A0023F2
:102B00001370084A1370084A1370084A1370084A71
:102B10001370084B1860084B32301860704700BFC4
:102B2000B8070020B9070020BB070020BD07002020
:102B3000BC070020B4070020B00700202DE9F04FAB
:102B4000A74F3E7895B00446002E33D1A54A1368AE
:102B5000C31A002B16DB00F57A73DFF8E8821360E6
:102B600018F8015BA04805230222294605F006FB60
:102B700058B1731C022B4FF00106F1D19B4A002380
:102B800013703B7015B0BDE8F08F984B96481D70E0
:102B90007A2D4FF00A0300930BBF954A954A1B23E9
:102BA0001A23294605F0DEF90028E2D101233B7003
:102BB000914B1C60914EDFF890923378904D03F06A
:102BC000FF0853B1002333702B7089F800303B703D
:102BD000844B04F57A741C60D4E799F800302F78A0
:102BE000002B33D0012F89F800801CD1854B8648FB
:102BF0001978402300F8013B844B802203EBC1117C
:102C000009F067F97949804A0978774889F800809E
:102C1000812386F8008005F053FA10B902232B7047
:102C2000B0E73770AEE7022F10D1764B187801303D
:102C3000C0B20728187006D8FFF738FF0028A1D1C6
:102C4000012333709EE785F800809BE7002F99D120
:102C5000694A1368E31A002B94DB04F164031360E0
:102C600003F0E6F8824601F073FA05460220FFF70A
:102C7000A7FA2822394680460DEB020009F02AF80F
:102C800039464FF48062614809F024F80AA8FFF73A
:102C900031FD4FF4FA7221460AA8FFF743FD9AF876
:102CA0000130042B96BF5A4ADFF870B152F823B0B6
:102CB00007460020FFF780FE81460120FFF77CFEDB
:102CC000544A5B46CDE90090182104A808F04CFF57
:102CD00004A90020FFF784FE9AF80030052B96BF68
:102CE0004D4A4E4B52F8233095F83C200092182163
:102CF0004B4A04A808F038FF04A90120FFF770FE32
:102D0000D8F80830474A182104A808F02DFF04A974
:102D10000220FFF765FEA869FDF7E6FBCDE900019B
:102D2000414AAB6B182104A808F01EFF04A9032038
:102D3000FFF756FE002F4DD00B98FDF7D5FBCDE9E0
:102D400002010A98FDF7D0FB384ACDE900011821AD
:102D500004A808F009FF04A90420FFF741FE286930
:102D6000FDF7C2FB804620468946FFF7F3FC304A58
:102D700002901821CDE9008904A808F0F5FE04A905
:102D80000520FFF72DFE6869FDF7AEFB294ACDE966
:102D90000001182104A808F0E7FE04A90620FFF7A7
:102DA0001FFE9AF80230052B96BF234A1B4B52F8A0
:102DB00023300E4A12785208009218211F4A04A8A4
:102DC00008F0D2FE072004A9FFF70AFE0D4B0020F1
:102DD000187031E71A4904A809F073F8BBE700BF7F
:102DE000B8070020B007002088020020B9070020A3
:102DF000C6F60008ACF60008B4070020BC070020A7
:102E0000BB070020BA070020BE07002043080020AF
:102E100098F6000890E9000880F600088EE900089E
:102E20009DE90008ACE90008B6E90008CAE9000815
:102E3000E9E90008F9E9000868F6000804EA000872
:102E4000DCE90008E1F60008BD070020014B187816
:102E500040087047B90700200268034B9A4202BF3E
:102E6000024B01221A70704700540040BD07002039
:102E70000268034B9A4202BF024B01221A7070474C
:102E800000540040BC070020164A17490023136075
:102E9000164A1360164A1068164A1060164A1360E4
:102EA00000220A6015490A6015490B6015490A702D
:102EB00015490A7015490B6015490A6015490B60E0
:102EC00015490A7015490A7015490B6015490A70B1
:102ED0001549C1E90D224B618B61C86108624B62E3
:102EE0008B627047C00C0020A80C0020BC0C002096
:102EF000B40C0020B80C0020AC0C0020A40C002066
:102F0000A00C00209E0C00209D0C0020980C00209E
:102F1000940C0020900C00208D0C00208C0C0020C4
:102F2000880C0020850C0020E80C0020094B0A4981
:102F300000221A7000230B6008490B6008490B60DF
:102F400008490B6008490B6008490B60084B1A6080
:102F5000704700BF840C0020640C0020600C00202F
:102F60005C0C0020580C0020540C0020500C002059
:102F70004C0C002010B51748FFF748F91648FFF72A
:102F800045F9164A00231360154A1360154A0024B8
:102F90001470154A1460154A1460154A1360536082
:102FA0009360D3601361D3621463D463114A1360D6
:102FB000114A1360114B01221A70FFF765FF20467A
:102FC000FFF7B4FFFEF7A2FE2046BDE81040FEF773
:102FD000DFBF00BF480D0020280D0020E40C0020BA
:102FE000E00C0020DC0C0020480C0020440C0020E9
:102FF000E80C0020B40C0020B00C00209C0C002039
:1030000008B52DED048B9FED268ADFED269A9FED06
:10301000269ADFED268A2648B0EE692AF0EE491A94
:10302000B0EE481AB0EE680AF0EE000AFFF7F5F8C5
:10303000B0EE692AF0EE491AB0EE481AB0EE680A0E
:103040001C48F0EE000AFFF7E8F81B4B1B4A1A6019
:103050001B4A1C494FF0804313601B4A13601B4AF4
:1030600082ED008A1A4A11601A4A1B4911601B49F5
:103070004FF081420A601A490B601A4B83ED008AB7
:10308000194B1A60194B1A4A83ED008ABDEC048B68
:10309000184B1360184A1360BDE80840FFF76ABF79
:1030A00000000000008054440080D4433333333F99
:1030B000480D0020280D0020D80C00209A99993F37
:1030C000D40C0020000080BFD00C0020CC0C0020CD
:1030D000C80C0020C40C00200000C843800C002055
:1030E0007C0C0020780C0020740C0020700C002058
:1030F0006C0C00200000C842680C002038B50D4D53
:10310000044685F83D00FEF701FE94B900230A4805
:103110002B606B60AB60EB60FFF778F80748FFF758
:1031200075F82046FEF704FEBDE838400120FEF7A2
:10313000FFBD38BDE80C0020480D0020280D002000
:103140000B4B93F83E20824210B504460ED083F814
:103150003E00FEF71DFF4CB9064B1C60064B1C6081
:10316000FFF792FEBDE81040FFF7E0BE10BD00BFC4
:10317000E80C0020480C0020440C002008B5074B48
:1031800083F83F0048B983F83C00FFF77DFEFFF766
:10319000CDFEBDE80840FEF78FBF08BDE80C00205B
:1031A00008B5064B1A68064B1A60FFF76DFE054B13
:1031B000054A1A61012283F83C2008BDB40C0020A6
:1031C000B00C0020E80C00200000484208B5FFF7D2
:1031D0005BFE034B034A1A61022283F83C2008BDC0
:1031E000E80C0020000048C2034B044A1A61002288
:1031F00083F83C20704700BFE80C0020000048C264
:10320000014B83ED000A7047E40C0020B0EE407AD9
:103210009FED0E0AB4EEC07AF1EE10FA0AD4DFED9B
:103220000C7AB4EEE77AF1EE10FAD4BFB0EE470AAA
:10323000B0EE670A074B83ED040A93F83F301BB9E1
:10324000054B1A68054B1A60FFF71EBE0000A0C2AE
:103250000000A042E80C0020B40C0020B00C0020BC
:10326000B5EEC00AF1EE10FA1ED4F5EEC00AF1EE8A
:1032700010FA19D4B5EEC01AF1EE10FA14D40B4BB3
:103280000B4A83ED000A0B4BF5EEC01AC3ED000AA2
:10329000094BF1EE10FA83ED001A4CBF074B4FF0CB
:1032A0007E531360FFF7F0BD704700BFD80C0020BD
:1032B000C80C0020D40C0020D00C0020000080BFDF
:1032C000024B187008B9024B187070479C0C002014
:1032D0009D0C0020B5EEC00AF1EE10FA04D4034BA9
:1032E00083ED000AFFF7D0BD704700BFCC0C002073
:1032F000B5EEC00AF1EE10FA0CD4DFED087AB4EEA8
:10330000E70AF1EE10FAC8BFB0EE670A044B83ED8E
:10331000000A70479FED030AF8E700BF0000FA4477
:10332000C40C00200000000008B5FFF7ADFDFFF75A
:10333000FDFD064B01221A70054B00211961002189
:1033400083F83C1083F83F2008BD00BF840C0020A8
:10335000E80C0020B5EEC00AF1EE10FA29D4F5EE23
:10336000C00AF1EE10FA24D4B5EEC01AF1EE10FA4C
:103370001FD4F5EEC01AF1EE10FA1AD49FED0D7AB3
:10338000F0EEC27AF4EE477AF1EE10FA11D80A4B59
:1033900083ED000A094BC3ED000A094B83ED001AC7
:1033A000084BC3ED001A084B83ED002A074B00229F
:1033B0001A607047FFFF7F7F800C00207C0C00208C
:1033C000780C0020740C0020700C0020580C002099
:1033D000B5EEC00AF1EE10FA1DD4DFED127AB4EEAC
:1033E000E70AF1EE10FAC8BFB0EE670A0E4BF5EE31
:1033F000C00AF1EE10FA83ED000A0FD4DFED0B7A6C
:10340000F4EEE70AF1EE10FAC8BFF0EE670A084BD7
:10341000C3ED000A70479FED070AE7E7DFED050AF5
:10342000F5E700BF0000FA446C0C00200000964352
:10343000680C002000000000104B70B515460022FB
:1034400004460E4683F83F2083F83C20FFF71CFD1E
:10345000FFF76CFD0A4B9C42B8BF1C46B4F5FA6FEF
:10346000084BA8BF4FF4FA641C60074BB6F5FA7F0F
:1034700094BFAD1905F5FA751D6070BDE80C00200C
:1034800030F8FFFF480C0020440C002010B5044623
:10349000FFF714FA314B93F83D20002A5AD0002C44
:1034A00058D02F4A90ED016A10782E49002852D04A
:1034B000D1ED006ADFED2C7A76EE666A66EEA76AD9
:1034C00007EE904AB8EE677AC6EE877AB3EE097ACD
:1034D00067EE877ADFED256A9FED257A81ED006A38
:1034E000E6EE267A01211170F4EEC77AF1EE10FAB9
:1034F00008D49FED207AF4EEC77AF1EE10FAD8BF27
:10350000B0EE677A1C4A83ED0B7AD2ED007AF5EEC5
:10351000C07AF1EE10FA15DDF4EEE76AF1EE10FA7A
:10352000B0EEC66AF7EE005AC8BFF0EE676AB4EEB6
:10353000E56A77EEE66AF1EE10FAD8BFF0EE465A89
:10354000E6EEE57A77EEC76A77EE877AC3ED006A32
:10355000C3ED017A10BDDFED097AB7E7E80C002072
:10356000DC0C0020E00C002000007A440000344312
:10357000000096C300009643E40C00200000000009
:103580002DE9F04F2DED028B04468BB00020FEF7A5
:1035900017FE07460120FEF713FE054602F0CEFC9B
:1035A0000646002C00F0B88507EE904AAB4C9FED24
:1035B000AC8A94F83D30F8EE678A68EE888A002B72
:1035C00061D0002F5FD0002D5DD094ED026AD4ED64
:1035D000007A9FEDA47AD4ED035A97ED040AA2482D
:1035E00028EE877A77EEC67AF1EE476AF4EEC77A6C
:1035F000F1EE10FAC8BFF0EE477AF4EEE76AF1EEAA
:1036000010FAC8BFF0EE667A77EE867A94ED016A1A
:10361000C4ED027A36EE656A37EEC00AB4EEC76AC8
:10362000F1EE10FAD8BFB0EE467AF4EEC76AF1EECA
:1036300010FAD8BFF0EE476A76EEA56AF0EE680A97
:10364000C4ED036AFEF7F8FDBDEEC00AD5ED047ABD
:10365000864810EE103A94ED030A238630EE670A8E
:10366000F0EE680AFEF7E8FDBDEEC00AB4F93010CE
:1036700010EE103A00206386FEF794FBB4F9321086
:103680000120FEF78FFBFEF71FFD90ED027A784FC9
:10369000784BD7ED007A93F80080B8EEC77A27EE22
:1036A000287A77EE277AC7ED007AB8F1000F1DD09F
:1036B000714B724AD3ED007AD2ED006A37EE277A69
:1036C000B1EE046AF1EE667A77EEC67AB4EEE77A86
:1036D000F1EE10FA08D476EE867AB4EEE77AF1EEDF
:1036E00010FAD8BFF0EE477AC3ED007A94F83F5055
:1036F000C4ED087A002D00F0AD842822B8F1000F47
:1037000000F04D810021684608F0E4FA6846FFF7B2
:1037100031F85B4A9FED5B6AA0B19DF825308BB113
:103720001368039DDDED016A57495848584F7BBB2C
:10373000C1ED006A80ED006A564B00991960C7ED33
:10374000006A15601368544A13B1F31A502B59D903
:103750009FED4C8A82ED006A454694F83E3013B9DD
:103760009FED488A01250220FEF72AFDD0E90223B9
:10377000012A73F1000180F28284B5EEC08AF1EE75
:1037800010FA40F187849FED3F8A012500F082BC4A
:10379000EB1AA3F10A0CBCF15A0F30D807EE903A9D
:1037A000D7ED005AF8EEE77A76EEE55A67EE887ABA
:1037B00085EEA77ADFED397AB4EEE77AF1EE10FA0A
:1037C00008D4DFED377AB4EEE77AF1EE10FAD8BF1D
:1037D000F0EE477A90ED007A77EEC77AF5EE005A70
:1037E000A7EEA57AD1ED007A80ED007A76EEE75A61
:1037F0009FED2C7AE5EE877AC1ED007A9CE7B0EE7A
:10380000467AEFE707EE103A1F49224BD1ED007AD6
:10381000D3ED005ADFED244AD2ED006AB8EEC77A44
:1038200027EE087AE7EE275AB7EE007AB0EE475A4D
:10383000A8EEE45AE8EEA56AB5EEC05AF1EE10FA29
:1038400038D566EE866A9FED197AF4EEC76AF1EE16
:1038500010FAD8BFB0EE667A3CE000BFE80C00205A
:103860006F12833A0000FA43480D0020280D002013
:10387000B40C0020840C0020540C0020680C0020A4
:103880004C0C002000000000600C00205C0C0020AC
:10389000500C0020640C0020580C00200000FAC4DA
:1038A0000000FA449A99193FCDCC4C3E0000C84222
:1038B0000000C8C2B4EEC75AF1EE10FAD8BFB0EE9D
:1038C000457A67EE266A1FED067AF4EEC76AF1EED6
:1038D00010FAB8D5BC4B82ED007AD3ED006ABB4B31
:1038E00067EEA67AD3ED006AB94BE5EEA67AD3ED82
:1038F000006AB84BD3ED005AB74B27EE267AD3EDCA
:10390000006AB64B77EE877AD3ED004AB44BE6EE09
:10391000E57AD3ED006AB34B64EEA66A93ED005AE4
:1039200077EEA67AB1EE458AF4EEC87AF1EE10FA97
:1039300008D4F4EEC57AF1EE10FAD4BFB0EE678A7F
:10394000B0EE458AA84BD3ED007AF4EEE75AF1EEDB
:1039500010FA04DBB5EEC08AF1EE10FA1CDCF1EED1
:10396000677AF4EEE75AF1EE10FA06D8B4EEC86AB8
:10397000F1EE10FAC8BFB0EE468A84ED058A84EDF8
:10398000067A84ED076AC4ED085AC4ED094AC4ED0D
:103990000A6A4FF00008DFE69FED948AEDE74146A2
:1039A000684608F097F96846FEF7E4FEDFF87C8287
:1039B000002800F09E819DF825C0BCF1000F00F0AA
:1039C000988194F83C208A4B94ED046A93ED003A78
:1039D0009DED005A039B012A40F0B280DFED857A0D
:1039E00036EE276A8449D1F800A036EE456ABAF16E
:1039F000000F00F0B480A3EB0A0105EE901AF8EE78
:103A0000655A65EE885ADFF82892DDED017AD9F81B
:103A10000000DFF820E2002840F0A4807748C9F8D1
:103A20000030C0ED007A76489EED007AD0ED003A85
:103A30007448DFF80492D0ED004A99F8000084ED54
:103A4000097A63EEE46A66EE876AC4ED0A6AA8B191
:103A50009FED6D4AF0EEC56AF4EEC46AF1EE10FA1D
:103A600000F25183F0EEE76AB3EE094AF4EEC46A5D
:103A7000F1EE10FA9CBF002089F80000DFF8BCB11D
:103A80009BF80000002840F00C8199F800E0BEF19E
:103A9000000F40F06D81F0EEE76AB3EE094AF4EEF4
:103AA000C46AF1EE10FA0FD8DFED586AB4EEE65AA8
:103AB000F1EE10FAC0F2CA80F9EE046AB4EEE66ADA
:103AC000F1EE10FA00F1D280F0EEC66AF1EE042AAF
:103AD000F4EEE26AF1EE10FA4D48DFF86491DFF897
:103AE00064C1B0EEE74A00F24581F2EE006AB4EE3E
:103AF000E64AF1EE10FA00F23D81F5EEC03AF1EE41
:103B000010FA09D9F0EEC76AF3EE042AF4EEE26A7D
:103B1000F1EE10FA00F22E813E4AD7ED007A4FF016
:103B2000000EC0F800E0002010703B4AC9F8000009
:103B30001070314ACCED007A1360C4F818E0D4E07C
:103B4000022A7FF44FAFDFED357AB4EEE75AF1EE9B
:103B500010FAC4BFDFED277A36EE676A42E7DFED81
:103B6000235A50E7181A4F287FF65DAFFA2828D855
:103B7000DFF888B007EE100ADBED004AB8EEC77A2E
:103B800077EEE44A27EE087AC4EE876A9FED247A3E
:103B9000F4EEC76AF1EE10FA08D49FED227AF4EE43
:103BA000C76AF1EE10FAD8BFB0EE667ADEED006AB1
:103BB000DFED1D4A37EE667AE7EE246ACEED006A45
:103BC0002CE7DFED0A6AF9E77C0C0020800C00206E
:103BD000780C0020540C0020740C00205C0C002099
:103BE000700C00206C0C0020680C0020000000000D
:103BF000D00C002000008C42A80C0020980C002063
:103C0000CC0C0020C80C00200000E0420000E6427E
:103C1000C00C00209E0C00209D0C002000000CC257
:103C20000080BBC40080BB446666E63EB80C002042
:103C3000940C0020900C00208C0C00208D0C002097
:103C4000A40C0020B00C00200000E6C25FED026A68
:103C5000B4EEE65AF1EE10FA3FF636AFF1EE046A32
:103C6000B4EEE66AF1EE10FA7FF72EAF66EE246A44
:103C70000120F5EEC06ADFF818E38BF80000F1EEE2
:103C800010FAB4BFBF484FF07E50CEF80000BE48D7
:103C90004FF0000EC0F800E0BC484FF0000E80F876
:103CA00000E0BB48D0ED006AB84826EEE74AF2EEE5
:103CB000082AB4EEE24AF1EE10FA37DAF1EE082AF9
:103CC000B4EEE24AF1EE10FA4ED500220270B14A8B
:103CD0009FEDB17A1360B14B00221A600023A361FB
:103CE000AF4BD3ED007AE6EE877AC8ED007AC4EDEB
:103CF000077A6846FEF7FEFC9DF82530A94A23B1F5
:103D0000039BF31A962B40F369819FEDA78A9E4B84
:103D100082ED008AA14A83ED008A002313609D4A48
:103D200013603B68C8F80030E36116E590F800E0E6
:103D3000BEF1010F14D99D484FF0000E80F800E04D
:103D4000012089F80000914880F800E08E484FF08B
:103D50000009C0F800909148C0F800E0E646B3E6DC
:103D60000EF1010E80F800E000780128E3D8AEE7FC
:103D70008646A9E6DFF854B267EEC36ADBED007A47
:103D8000E6EE276ADFED8A7AE7EE636A64EEA66AFA
:103D9000F4EEE76AF1EE10FA46D4DFED867AF4EE3F
:103DA000E76AF1EE10FAD4BFB0EE667AB0EE677A49
:103DB000BEF1000F06D0D7ED007A794977EEC77AC9
:103DC000C1ED007AF1EE007AB4EEE74AF1EE10FAB6
:103DD000DFF8FCE100F28980D9F800B0BBF1000FF8
:103DE00025D1C9F800306AB9734A92F800C0BCF115
:103DF000000F07D1DFF8DCC18CED005A4FF0010C49
:103E000082F800C06D4A92F800C0BCF1000F00F0CB
:103E1000A680F2EE007AB4EEE74AF1EE10FA00F274
:103E20009E804FF0000C98E0B0EE677AC0E7BAF1E0
:103E3000000FE7D0A3EB0B0BBBF1C70FE2D9DFED0F
:103E4000607AF4EEE75AF1EE10FA08D4DFED5D7A0D
:103E5000F4EEE75AF1EE10FAD8BFF0EE657ADEED37
:103E6000005AF5EEC05AF1EE10FACBDDDFED562A1E
:103E700090ED005A82EEA53AF0EE453AE6EE273A8A
:103E8000F1EE436AF4EEE63AF1EE10FA08D4F4EEFD
:103E9000C33AF1EE10FAD4BFF0EE636AF0EE436A73
:103EA00064EEA55A76EEC56A67EEA27A66EEA56A5A
:103EB000B1EE676AF4EEC66AF1EE10FA08D4F4EED9
:103EC000E76AF1EE10FAD4BFB0EE666AB0EE676A48
:103ED000DCED007A77EE867ACCED007AC6EE257AB4
:103EE00077EE857AC0ED007A8CE7F2EE047AB4EED4
:103EF000E74A4FF0000CF1EE10FAC9F800C081DB80
:103F000012B1002202607DE7DFF8CCC09CF800C04F
:103F1000BCF1000F3FF476AFDFF89CC09CF8009036
:103F2000B9F1000F3FF46EAFDFF8A890D9ED007A39
:103F300075EE677AF0EE006AF0EEE77AF4EEE67A74
:103F4000F1EE10FAFFF65EAF8CF800204FF000099A
:103F50001A4AC0F800904FF0010C82F800C0DEED64
:103F6000007A0C4AD0ED006A136064EEA77A0C4B1D
:103F700067EEA67AC4ED067AD3ED007A77EE277A5B
:103F8000B3E600BF000080BFC00C0020850C0020FD
:103F9000880C0020A80C002000009644A40C0020EF
:103FA000B00C0020BC0C0020000000008D0C002094
:103FB000000096C3000096439E0C00209D0C00203C
:103FC0000AD7A33BCDCCCC3D00001644D80C002032
:103FD000D40C0020A00C00209C0C0020514B1B781E
:103FE0007BBB514B1B787BBB504B93ED007AD7EDDD
:103FF000006AD8ED007A77EEE67AF7EE006AB0EE66
:10400000E76AB4EEE66AF1EE10FA20D9F2EE046A3D
:1040100067EEA67AB1EE478AF4EEC87AF1EE10FAAE
:1040200008D4F4EEC77AF1EE10FAD4BFB0EE678A86
:10403000B0EE478A82ED008A84ED058A0025FFF7FD
:104040008CBB9FED3B7AD2E79FED3A7ACFE79FEDAD
:104050003A8AEFE739493A4A0B684BB1F31A002B19
:1040600005DA92ED008AB8EEC88AFFF776BB012523
:1040700000239FED318A0B601360FFF76EBBB2F532
:10408000966F73F1000305DBB5EEC08AF1EE10FA0E
:104090003FF779ABB0EE480A06F030F9294B606380
:1040A00055B100221A600023A3630BB0BDEC028B54
:1040B000BDE8F04FFEF700B893ED007ADFED227A0D
:1040C00038EE478A68EEA77AB4EEE78AF1EE10FA86
:1040D000C8BFB0EE678AF1EE677AF4EEC87AF1EE07
:1040E00010FAD8BFF0EE487A37EE870A83ED000A5F
:1040F00006F004F93146A0630BB0BDEC028BBDE8BD
:10410000F04FFDF75BBF9FED114AF4EEC46AF1EE8C
:1041100010FABFF6A7ACB1E40BB0BDEC028BBDE862
:10412000F08F00BF8D0C00209D0C0020C40C0020DF
:104130000000C8420000FA4400000000440C0020C7
:10414000480C0020AC0C002000409C460000E642D9
:1041500000487047E80C0020044B054A1860002313
:104160001360044A1360044A13607047740D002002
:10417000700D00206C0D0020680D00202DE9F04727
:10418000044602200E4617469A46FEF719F8814665
:10419000FDF79AFF8046FEF791FB0546BAF1000F46
:1041A0000FD0D8F80830D9F80020002BB8BF5B42F8
:1041B0001F2B11DD8AB91E4B1E4A1C60136823B9E0
:1041C0001460BFB9F6B900201AE0E31A40F2ED22FC
:1041D0009342F6D9012013E01AB1164B00221A605F
:1041E000EFE7134B1B68002BEBD0E31AB3F5FA7F14
:1041F000F3D8E6E72046FEF7ADFA0028E2D1022028
:10420000BDE8F0870C4B1B68E31AB3F5FA7FDAD9E7
:104210002A7A0A4B4AB91A680AB91C60D3E7A41A69
:10422000B4F5FA7FCFD30320EAE700221A60CAE789
:10423000680D00206C0D0020740D0020700D002012
:104240002DE9F04F2DED0A8BABB0824601F0F0FD69
:104250000746FFF77DFF04460020FDF7B1FF8146CA
:104260000120FDF7ADFF80460220FDF7A9FF2822BF
:104270000021834620A807F02DFDFEF71FFB4F4EBF
:10428000054620A8FEF736FAD6F88830202B40F0F5
:104290008F807B7894ED049A9DED208ADDED218A54
:1042A00019933B781A93F2EE047ABB78D5ED019A14
:1042B0001B9328EE278ADBF80030DBF80810626BCE
:1042C0001C9368EEA78A29EE279ADFED3D7AA36B4F
:1042D0001F91002069EEA79A1E931D9294F83C70DE
:1042E00099ED04AAD8ED04AAB4F93290B4F930805B
:1042F00094ED05BAD4ED07BA94ED08CAD4ED06CA18
:1043000095F800B0FEF758FB04460120FEF754FB79
:104310000546FEF79BFD1E9B0A931C9B09931B9B66
:104320001F9902931A9B1D9A0193BDEECAAA199B6D
:104330000B92FDEEEAAABDEECBBAFDEEEBBABDEEF6
:10434000CCCAFDEEECCABDEEC88AFDEEE88ABDEE31
:10435000C99AFDEEE99ACDE91650CDE90791194ABF
:1043600000934FF480711848CDED139A5346CDE970
:1043700014B48DED129ACDED118A8DED108ACDED2C
:104380000FCA8DED0ECACDED0DBA8DED0CBACDF87C
:104390001880CDED05AA8DED04AA039707F0E4FB84
:1043A000FF28A8BFFF2082B20749304604F062FE12
:1043B0002BB0BDEC0A8BBDE8F08F00BFD00300200E
:1043C00000007A4465EA0008780D0020034A0023C3
:1043D0001360034A1360034A13607047800E002085
:1043E0007C0E0020780E002008B505490548012202
:1043F00005F042FE10B1044B01221A7008BD00BF47
:1044000098130020D00300201313002073B50D462D
:10441000002401A90646019406F09EFD019BB342CB
:104420000FD0187868B99FED087AF0EEC07AF4EEF4
:10443000477AF1EE10FA02D885ED000A012002B0A9
:1044400070BD2046FBE700BFFFFF7F7F73B50A22E8
:104450000D46002401A90646019406F05BFE019B6F
:10446000B34205D01B781BB92860012002B070BD93
:104470002046FBE708B50020FEF780FE0020FEF78F
:104480005FFEFDF705FD054A00231360044A136033
:10449000044A1360044A136008BD00BFA00E002048
:1044A0009C0E0020980E0020940E002038B52DEDB3
:1044B000028BB0EE408A0D460446FFF7DBFFB0EEFC
:1044C000480AFEF7A3FE0120FEF73AFE0120FEF7A0
:1044D00055FE15B12046FEF763FE0F4B002283ED1B
:1044E000028A5A70B5B1042201251A70002283F89D
:1044F0002850DA62094B1C60094B1A60094BBDEC6D
:10450000028B1A60084B04F5EA441A70074B3034EA
:104510001C6038BD0322E8E79C130020900E0020A9
:104520008C0E0020880E0020840E00209C0E00209F
:10453000F8B50D4C237803F0FF059BB90B4F3B7882
:1045400083B10B4B0B491E880B48324607F0C1FC68
:10455000012309490948237032463D7004F08AFD61
:1045600000B12570F8BD00BFAD0E0020AC0E0020DC
:10457000AE0E0020B00E0020B0100020D0030020AE
:104580000FB407B504AB0D4853F8042B01934FF457
:10459000007107F091FB00280BDD40F2FF139842F9
:1045A000A8BF1846064B1880064B01221A70FFF769
:1045B000BFFF03B05DF804EB04B07047B00E0020FD
:1045C000AE0E0020AC0E00200B4610B501464FF495
:1045D000FA721846FEF7A6F8044610B90248FFF72B
:1045E000CFFF204610BD00BF37EB00082DE9F04F8C
:1045F0000746D3B00220FDF7E3FD8146FFF7A8FD93
:104600000646FDF761FD28220021804648A807F0F4
:1046100061FB4FF4FA72394648A8FEF783F84B9CC9
:104620008346002C00F0BB803C1B4C9D002D00F00D
:10463000B9807D1B48A8FEF75DF85C4B489893F85D
:1046400000A05B78042B96BF594A5A4A52F823209F
:10465000D9F808302893D9F800302993D8F80430D5
:104660002A93D8F808302B93B36B2C93524B479274
:104670001B682D93514B1B682E93514B1B682F9336
:10468000FBF732FFCDE930014998FBF72DFFCDE96B
:104690003201706AFBF728FFCDE934013069FBF77E
:1046A00023FFCDE936017069FBF71EFFCDE9380124
:1046B000F069FBF719FFCDE93A01306AFBF714FF07
:1046C000CDE93C01B06AFBF70FFFCDE93E01B069CF
:1046D000FBF70AFFCDE940013846FEF73BF84D9B5A
:1046E000429332494E9B43934F9B91F828904493B9
:1046F000C96A509B4A9F9DF844814693064645915E
:10470000FEF7A4FB9DED407B8DED187B9DED3E7B80
:104710008DED167B9DED3C7B8DED147B9DED3A7B05
:104720008DED127B9DED387B8DED107B9DED367B05
:10473000469B2393449B22938DED0E7B439B45998F
:1047400021939DED347B429B2690CDE92491CDE9C8
:104750001F53CDE91D84CDE91BB78DED0C7B1A9657
:104760009DED327B2F9B06932E9B05932D9B0493EF
:104770002C9B03938DED0A7B2B9B02939DED307B4D
:104780002A9B0193299B00938DED087B289B479AD8
:104790000C485146FFF7F4FE53B0BDE8F08F4FF0E0
:1047A000FF3442E74FF0FF3544E700BF9C13002081
:1047B000E4F600085EEB0008800E00207C0E00206E
:1047C000780E002066EB000838B5094D2B78052BD4
:1047D00004460CD0FFF74EFE05232B70054B6C7082
:1047E00053F824100448BDE83840FFF7C9BE38BD6F
:1047F0009C130020E4F60008A1EC000810B530225C
:10480000044600210C4807F065FA0B4A0B4BD360B5
:104810004FF0804313615361094B9361094BD3619E
:1048200064235362FFF7D2FD074B1C60074B1C60EB
:10483000BDE81040FFF7D8BD9C1300209A99993F1E
:10484000000080BF0000C843A80E0020A40E002076
:104850002DE9F047A24B2DED048B1A78A0B0044649
:1048600042B1A04AD2F88C20202A03D100221A702B
:10487000FFF7BAFDFFF75CFEDFF8E882DFF8E892A9
:10488000994BB8F800201B8892B29BB29A426DD126
:10489000964D2878002800F05584954B1A7822B15F
:1048A000002201201A70FFF78FFF924B1E68A61B93
:1048B000042E30D930461C60FDF732FCFDF704FCB5
:1048C0008D4F81683868A1FB06324FEAE17CC3183E
:1048D00006FB0C2242EBE072B3F1004F72F1FF30A5
:1048E000BCBF4FF000434FF0FF32B3F1004F72F105
:1048F0000002A8BF6FF0004300293B6040F3D8835B
:104900007E4A1368334413602B78023B022B11D884
:104910003046FEF735FE2B78022B0BD1784B1B6807
:10492000E31A002B06DBFFF7A5FD012375482B706A
:10493000FFF726FE95F80080A8F10203022B00F293
:10494000F6830220FDF73CFC0746FDF7BDFBB8F1FE
:10495000020F064600F0B0832046FDF7FBFE00285C
:1049600040F0AA830320FFF72FFFB7E3B8F8003029
:10497000654A9BB2D15CB8F80030013303F07F0385
:104980000D29A8F80030CAB2B9F8003002D00A2ABE
:1049900040F07D83002B3FF473AF5C4A5C490026F6
:1049A0001046D65407F0B0F90EAD0746C7B1082E31
:1049B0000DD10E9D57492846FCF7F4FA002851D135
:1049C0002046FFF713FE0023A9F8003058E745F80A
:1049D000047B4F49002007F097F901360746E5E7C9
:1049E000002EF0D0022E0E9DE4D14B492846FCF754
:1049F000D9FA10BBDDF83CA048495046FCF7D2FA82
:104A000080B901F015FA43781BB14548FFF7B8FDAE
:104A1000D9E7FFF72FFDFFF7D9FC344B41480122BE
:104A20001A80F3E740495046FCF7BCFA28B9FFF773
:104A300021FD2E4B3D481F80E8E73D492846FCF705
:104A4000B1FA0028B6D13B490F98FCF7ABFA0746FC
:104A50000028AFD1FFF70EFD244B1F8000F0CAFDE8
:104A60003548D3E735492846FCF79CFA30B9FFF7BB
:104A700001FD1E4B324801221A80C7E73149284602
:104A8000FCF790FA30B9FFF7F5FC184B2E480122DD
:104A90001A80BBE72D492846FCF784FA60B9134B0E
:104AA0001B78012B01D02A48B0E70220FDF792FBCA
:104AB000FFF78CFC2748A9E7022E57D12649284644
:104AC000FCF770FA002840F0A48024490F98FCF706
:104AD00069FA002840F09D80FFF778FC204895E7B0
:104AE00013130020D0030020161300209C13002075
:104AF00012130020A80E0020800E00207C0E002043
:104B0000A00E00206AF2000818130020B212002044
:104B1000B3EC00085EED0008B6EC0008ACEC000851
:104B2000BCEC0008E0EC0008AFEC00081EED00084B
:104B30002DED000831ED000836ED0008DDF200082B
:104B400065ED000872ED000878ED00088BED0008B7
:104B500090ED0008A7ED0008D0ED0008D5ED0008A5
:104B6000DBED000814130020B0120020032E40F0EB
:104B7000DE80AF492846FCF715FA002840F0DC81BA
:104B80000F980CA9FFF762FC002800F0D58110985F
:104B90000DA9FFF75BFC002800F0CE810C9E06F10A
:104BA0006403C82B05D80D9D002D02DDB5F5FA7FF5
:104BB00007D9A0480A234FF4FA726421FFF7E0FCFA
:104BC00001E786EAE673A3EBE673A3FB053242F244
:104BD00011718B4272F1000206D3974842F21072B3
:104BE0000A21FFF7CDFCEEE6944FFFF743FC0223CA
:104BF0003B80934B7E60621901201A60FEF7A0FA99
:104C0000786822462946FEF717FC8E482A46314628
:104C1000E7E78D492846FCF7C5F90746002859D132
:104C2000DDF83CA089495046FCF7BCF9014618BBA9
:104C3000282216A807F04EF816A92046FFF7C4FC54
:104C400000283FF4C0AEDDED167AB2EE087AF0EE41
:104C5000E77AF4EEC77AF1EE10FA05DD7C4B7D4879
:104C60000022FFF78DFCAEE620469FED7B0A012176
:104C7000FFF71CFC7948C9E608A95046FFF7C6FBB8
:104C800040B33946282216A807F024F816A9204672
:104C9000FFF79AFC00283FF496AE9DED088ADFED01
:104CA000707AB0EEC87AB4EEE77AF1EE10FA03DD6E
:104CB0006C4B6D480022D4E739462046B0EE480AD6
:104CC000FFF7F4FB18EE100AFBF70EFC02460B464A
:104CD0006648C6E766492846FCF764F9002840F0B4
:104CE000818164490F98FCF75DF90146002840F086
:104CF0007981282216A806F0EDFF16A92046FFF7B5
:104D000063FC00283FF45FAEFFF7B4FB0120FEF721
:104D100017FAFEF709FB494B574800229A60032215
:104D20001A80564A04F5EA43303313606EE6072EC4
:104D300040F0DF8252492846FCF734F9002840F061
:104D4000C78250490F98FCF72DF9002840F0C08227
:104D5000109808A9FFF75AFB002800F0B9821198B3
:104D600009A9FFF753FB002800F0B28212980AA9A4
:104D7000FFF74CFB002800F0AB8213980BA9FFF75C
:104D800045FB002800F0A482149816A9FFF73EFB0B
:104D9000D8B1DDED089AF5EEC09AF1EE10FA14D410
:104DA0009DED098AB5EEC08AF1EE10FA0DD4DDED65
:104DB0000A8AF5EEC08AF1EE10FA06D49DED0B9A40
:104DC000B5EEC09AF1EE10FA01D52F481EE6169DF9
:104DD000F0EE491A02EE105AB0EE681AF0EE480AE8
:104DE000B0EE690AFEF7B6FA19EE900AFBF77CFB03
:104DF000064628460F46FBF777FBCDE9060119EE7C
:104E0000100AFBF771FBCDE9040118EE900AFBF7DD
:104E10006BFBCDE9020118EE100AFBF765FB324689
:104E2000CDE900013B461948FFF7AAFBCBE500BFDF
:104E3000FBED0008FFED000837EE00089C13002092
:104E4000A00E00206BEE00088CEE000891EE00082A
:104E5000000028409AEE000800004842C7EE000813
:104E60000000A04200005440FEEE00081CEF0008C5
:104E700046EF00084EEF000854EF00089C0E00209B
:104E800084EF00088BED000889EF0008C0EF0008F0
:104E9000B2492846FCF786F8002840F01982B0494C
:104EA0000F98FCF77FF8002840F01282109808A9AC
:104EB000FFF7ACFA002800F00B82119809A9FFF760
:104EC000A5FA002800F00482DDED088AF5EEC08A1C
:104ED000F1EE10FAC0F2FC819DED098AB5EEC08AB0
:104EE000F1EE10FAC0F2F481DFED9E7AF4EEE78A7B
:104EF000F1EE10FA00F2EC81DFED9B7AB4EEE78A76
:104F0000F1EE10FA00F2E481F0EE480AB0EE680A21
:104F1000FEF75EFA18EE900AFBF7E6FA064618EE80
:104F2000100A0F46FBF7E0FA3246CDE900013B4696
:104F30008E48FFF725FB46E58D492846FCF732F8F9
:104F4000E0B98C490F98FCF72DF8B8B9109808A96A
:104F5000FFF75CFA90B19DED088AB5EEC08AF1EEDC
:104F600010FA0BDBB0EE480AFEF7B4F918EE100A9F
:104F7000FBF7BAFA02460B467F4872E677492846A5
:104F8000FCF710F8002840F0A3817C490F98FCF74B
:104F900009F8002840F09C81109808A9FFF736FA1C
:104FA000002800F095819DED088AB5EEC08AF1EEEB
:104FB00010FAC0F28D81DFED6B7AB4EEE78AF1EE84
:104FC00010FA00F285816E4BB0EE480A83ED078A35
:104FD000FEF78EF918EE100AFBF786FA02460B462A
:104FE00068483EE668492846FBF7DCFF002840F0A9
:104FF0006F81DDF83CA065495046FBF7D3FF0746BB
:1050000030B163495046FBF7CDFF002840F0608186
:10501000B7FA87F04009FEF753F95C495C4B5D48ED
:10502000002F18BF1946FFF7ABFACCE40F9F584981
:105030003846FBF7B7FF20B9514B83F8200056489C
:10504000E4E452493846FBF7ADFF002840F04781C1
:105050006423032E16930ED1109816A9FFF7F6F9C4
:1050600038B1169940F2BC72A1F1140090420B467F
:1050700002D94A48CAE41946414A494853620123C1
:1050800082F82030474B1C60CDE74748BEE45E2BDA
:1050900006D8591CA9F800104449CA54FFF7F0BBC0
:1050A00000234348A9F80030FFF76AFAFFF7E8BB8E
:1050B0003FF42AAC3F4A24E4B3683A68002BB8BFF7
:1050C0005B421F2B40F38280002A40F080803A4BE5
:1050D0003A4A1C601368002B39D114602E78042ED4
:1050E00015D12822002116A806F0F4FD4FF4FA721B
:1050F000214616A8FDF716FB314B1B6841F288329A
:10510000E31A9342EB6270D93046FFF75DFB2B78D0
:10511000032B0CD12B4B1B684BB1E31A002B06DB86
:10512000FFF7A8F9012328482B70FFF729FA95F813
:10513000203033B11B4A696A1368E31A8B4280F04E
:10514000BA80012020B0BDEC048BBDE8F087E31AE3
:1051500040F2ED229342C1D9022004E4F8EF0008A6
:105160008BED00080000FA4400009643FEEF0008B3
:1051700084EF000855F000085BF000087FF000089D
:105180009C13002084F00008A6F00008ACEC000896
:10519000AFEC0008ACF00008C9F00008D9F0000836
:1051A000F9F00008A40E002033F20008B21200202B
:1051B00053F20008780E0020940E0020980E002074
:1051C000900E00209C0E0020B7F200081AB1894B07
:1051D00000221A6082E7884B1B68002B3FF47EAFE9
:1051E000E31AB3F5FA7FF2D878E7844B1A78E2B97C
:1051F00000288CD09FED827ADDED167A77EEC77AA3
:10520000B2EE047AF0EEE77AF4EEC77AF1EE10FA35
:105210003FF77DAF01221A70022385F8283020461F
:10522000784BAB60FDF7D2FF71E77749774AC8B199
:105230009FED737ADDED167A77EE877AB2EE047A17
:10524000F0EEE77AF4EEC77AF1EE10FA0ADCDDED63
:10525000177AB3EE097AF0EEE77AF4EEC77AF1EE58
:1052600010FA03DD00230B60136050E719980B68F8
:1052700098420AD043B1C31A962B95BF16680023F3
:10528000F618136098BF166008601368F92B7FF654
:105290003EAF032385F828302B705A4BAB60FDF7E7
:1052A000A3FF5B4AE96A5B4804F5EA4330331360C5
:1052B000FFF766F92BE720461460FFF797F940E700
:1052C000032E3FF439AE022E3FF48CAE012E06D0F1
:1052D00051492846FBF766FE00283FF4A7AE4F4928
:1052E0002846FBF75FFE00287FF4CFAE4C48FFF75F
:1052F0008DBB042E3FF4CCAD062EE1D149492846A2
:10530000FBF750FE0028E3D147490F98FBF74AFE10
:105310000028DDD1109808A9FFF778F80028D7D029
:10532000119809A9FFF772F80028D1D012980AA99C
:10533000FFF76CF80028CBD013980BA9FFF766F89D
:105340000028C5D0DDED089AF5EEC09AF1EE10FA0E
:10535000BEDBDDED098AF5EEC08AF1EE10FAB7DBAF
:105360009DED0A9AB5EEC09AF1EE10FAB0DB9DED14
:105370000B8AF7EE007AB4EE678AF1EE10FA06D0E7
:10538000FFEE007AB4EE678AF1EE10FAA0D1274B57
:10539000F0EE481AB0EE491AF0EE680AB0EE690A6B
:1053A000C3ED039AC3ED048A83ED059A83ED068A63
:1053B000FDF756FF19EE900AFBF796F8064618EE31
:1053C000100A0F46FBF790F8CDE9040119EE100A18
:1053D000FBF78AF8CDE9020118EE900AFBF784F892
:1053E0003246CDE900013B461148FFF7C9F8FFF707
:1053F000EABA00BF980E0020940E0020840E002010
:1054000000004842000048C28C0E0020880E002098
:105410009C0E00207CF20008D0F200080FF100087A
:1054200014F1000884EF00088CEE00089C130020A3
:1054300023F00008024B1878003818BF012070478D
:105440009C130020014B01221A7070471213002098
:105450000B4A0C4913880988013303F07F0389B292
:10546000994210B407D0084811880078074C89B2D7
:10547000C0B2605413805DF8044BFEF7B5BF00BFA7
:105480001613002014130020981300201813002076
:10549000024B00221A70FFF74BB800BFAD0E002080
:1054A000034B01221A70034B00221A70704700BF91
:1054B00013130020AD0E002028B1023802288CBF43
:1054C00000200120704701207047000008B5FCF75C
:1054D000DFFCFDF74FFDB0EE001A9FED120AFFEE64
:1054E000001AF0EE410AFDF7BBFE9FED0F0AFDF733
:1054F000FFFE0E4B00225A709A701A735A600C4BC2
:105500001A600C4B1A600C4B1A600C4B1A600C4B57
:105510001A700C4B20211A704FF09040BDE80840E3
:1055200001F0ACBA9A99993F0000C84330140020AA
:10553000201400201C140020D4130020D0130020BD
:10554000CD130020CC13002070B515461E46FCF785
:1055500037FED0E90241601B61EB0601FBF74EFB11
:105560009FED077A9FED070A07EE900A67EE877AAC
:105570009FED057A67EE877A87EE800A70BD00BFDF
:10558000000084420000C343DB0F494008B50020FF
:10559000FDF7B4FD0020FDF7F1FD0020FDF7D0FD83
:1055A000054B03225A70BDE80840012220214FF02C
:1055B000904001F063BA00BF3014002008B50C4BD6
:1055C0005A78042A13D09870042200205A70FDF7EC
:1055D00095FD0020FDF7D2FD0020FDF7B1FDBDE8EF
:1055E0000840012220214FF0904001F047BA08BD49
:1055F0003014002038B50F4D00F0A0FC6B78013B53
:10560000012B044603D8BDE83840FFF75FBFFFF722
:105610005DFF40F201132B800023AB60064B074A6D
:105620001C6000231360064A1360064A1370064A82
:10563000137038BD30140020D8130020D41300207C
:10564000D0130020CD130020CC13002010B500F0A3
:1056500075FC0446FCF738FCFCF768FCFCF738FDE9
:10566000FCF7E8FF2046FDF72DF9FDF7D9F8FDF727
:10567000C7FC2046FDF742FA2046FEF76DFD0B4BB6
:1056800001221A700A4B1C600A4B1C600A4B1C60FA
:105690000A4B1C600A4BA4F164021A60FFF716FF64
:1056A0002046BDE81040FFF7A9B800BF3014002025
:1056B00014140020101400200C14002008140020E2
:1056C000281400202DE9F0432DED028B95B000F059
:1056D00035FC0446FCF7E4FF2046FDF71DF92046A3
:1056E000FDF72CFA2046FFF7B3F830B115B0BDEC4A
:1056F000028BBDE8F043FDF76BB9FDF74FF90546A6
:105700000120FDF74BF9012DAB4D01D0012802D14D
:105710002C60FFF76FFF2B68E31A3B2B07D9A74BD1
:105720001A7822B100221A702C60FFF763FFA44B95
:105730001D68651B042D06D928461C60FCF7F0FC8B
:105740002846FDF71DFF9F4B1D68651B092D05D9D8
:105750001C60FDF765F82846FDF798FE9A4A136825
:10576000E31A092B40F29480984D14606E78022E53
:1057700040F09881964F3B781BB9964B1B68E31A13
:105780006B602B781846FFF797FE013B042B8CBF0C
:105790000023012301461A462046FEF7EFFC064689
:1057A00010B1FFF70BFF73E02B78012B40F0A780BF
:1057B000FEF7CEFC282207463146684606F08AFAF4
:1057C000844B1B6841F28832E31A934201D90420CA
:1057D000E7E72E7B4EB997F83C70012F38D07E4A10
:1057E000002313607D4A136052E0012E03D197F825
:1057F0003C30022BF3D1282200210DEB020006F0F1
:1058000069FA21464FF4FA720AA8FCF78BFF724935
:10581000724BC8B195ED027ADDED0A7A77EEC77A60
:10582000B2EE047AF0EEE77AF4EEC77AF1EE10FA0F
:105830000ADCDDED0B7AB3EE097AF0EEE77AF4EEEE
:10584000C77AF1EE10FA37DD00220A601A601FE015
:105850004FF4FA7221466846FCF764FFC0B19FED31
:10586000607ADDED007A77EEC77AB2EE047AF0EE78
:10587000E77AF4EEC77AF1EE10FA09DC564B2F7393
:105880001E60564B20461E60564BAB60FDF79EFCDB
:10589000554A1368E31A632B40F2A7824B4B1460FE
:1058A0005B78002B00F0A182204615B0BDEC028B86
:1058B000BDE8F043FEF7C4BC0D980A6890420AD0D8
:1058C00042B1821A962A95BF1E680022B6181A6045
:1058D00098BF1E6008601A68F92AD9D900260E60A0
:1058E0001E60FDF781FC3046FDF708FC0323012212
:1058F00020214FF090406B7001F0C0F8C8E7022BF8
:1059000020D13A4BD3E90023FFF71EFE384B01208C
:10591000D3E90023B0EE408AFFF716FEB0EEC88A46
:10592000B0EEC00A38EE008AF6EE007A28EE278A3A
:10593000DFED307AB4EEE78AF1EE10FAA8DBFFF77C
:1059400025FEA5E71846FFF7B7FD0028A0D0FCF715
:10595000B5FF264B8046D3E900233046FFF7F4FD20
:10596000234B0120D3E90023B0EE408AFFF7ECFD82
:105970003B78002B48D0204B3046D3E90023FFF77B
:10598000E3FD1E4B0120D3E90023B0EE408AFFF770
:10599000DBFDF0EE408AB0EEC88A9FED190AF0EE0A
:1059A000E88AFDF72DFC38EE288AF6EE007A28EE1C
:1059B000278ADFED147ABDE7281400202C1400207C
:1059C00014140020101400200C14002030140020A7
:1059D000F013002024140020201400201C140020A8
:1059E00000004842000048C20814002000140020B3
:1059F000F813002000C0C144E8130020E013002089
:105A0000000034430000484398F809307B497C4A41
:105A10007C4EFBB901200870B0EEC88AB0EEC00A17
:105A200038EE008AF6EE007A28EE278ADFED767AE5
:105A3000B4EEE78AF1EE10FA0FDB012111707BB1B1
:105A40002B781BB99FED710AFDF7DAFB336873B948
:105A500034601DE709780029DED11278002AEED1E2
:105A600000239FED690A3360FDF7CAFB10E7E31AD4
:105A70001D2B7FF60DAF2B78002B3FF460AF012577
:105A800000203D70FCF79CFBD0E90201604BC3E9AC
:105A900000012846FCF794FBD0E902015D4BC3E905
:105AA0000001F5E6012E40F0908128220021684691
:105AB00006F010F94FF4FA7221466846FCF732FE00
:105AC000554B1B684AF6C872E31A9342074601D940
:105AD000052066E6DFF85C8198F80090B9F1000FC8
